:1000000001010000000100000101010001010000E8
:1000100001010000000100000101000000010000DA
:1000200001010101010000000100000000000000CA
:1000300001010000000100000100000000000000BC
:1000400001010000000100000101000000010000AA
:10005000010100000001000001000000000100009B
:10006000010100000001000001000000010100008A
:10007000010000000000000001000000000000007E
:100080000101000000010000010001010100000069
:10009000010100000001000001010100000000005A
:1000A0000100010101000000010001010101000047
:1000B0000100010101000000010001010100000038
:1000C000010100000001000001000000000100002B
:1000D000010100000001000001000000000100001B
:1000E000010100000001000001000000000000000C
:1000F00001000101010000000100010101000000F8
:1001000001000101010000000100010101000000E7
:1001100001000101010000000100000000000000DA
:1001200001010101010100000100010101010000C4
:1001300001010101010100000101010101000000B4
:1001400001010101010100000101010100000000A5
:100150000101040404040000010001010101000088
:100160000101010001010000010101010100000085
:100170000101000101010000010100000101000076
:100180000101010101010000010101010101000063
:100190000101010101010000010404040401000047
:1001A0000101040404040000010101010101000037
:1001B0000101010101010000010101000101000034
:1001C0000101010101010000010101010101000023
:1001D0000101010101010000010101010101000013
:1001E00001040101010400000101010101010000FD
:1001F00001010101010100000101010101010000F3
:1002000001010000000100000101010001010000E6
:1002100001010001000100000100010100010000D6
:1002200001010100010100000101010101010000C3
:1002300001010101010100000101010101010000B2
:1002400001010101010100000101010100010000A3
:100250000101000101010000010101000101000094
:100260000101000100010000010101010000000086
:100270000100000101010000010000010000000078
:100280000101010101010000010101010101000062
:100290000101010101010000010101010101000052
:1002A0000101010101010000010101010101000042
:1002B0000101010100010000010101010101000033
:1002C0000101000101010000010101010101000023
:1002D0000101010101010000010101010101000012
:1002E0000101010101010000010101010101000002
:1002F00001010101010100000101000101010000F3
:1003000001010101010000000101010101010000E2
:1003100001010101010100000102000001010000D2
:1003200001010100010100000100000000010000C6
:1003300001000001010100000101010000010000B5
:10034000010100010101000001040101010400009C
:100350000101010101010000010101010101000091
:10036000010401010401000001010000000100007E
:100370000101010101010000010101000001000073
:100380000101010101010000010101010001000062
:100390000101010000010000010101000101000054
:1003A0000101010101000000010101010101000042
:1003B0000101010101010000010000010101000033
:1003C0000100010101010000010100010101000023
:1003D0000101010101010000010101010101000011
:1003E0000101010101010000010001000100000004
:1003F00001000000000000000101010101010000F6
:1004000001000101010000000101000001010000E4
:1004100001000101010000000100010101000000D4
:1004200001010101000000000100010101010000C3
:1004300001000101010100000101010101000000B2
:1004400001000101010000000100010101000000A4
:100450000100010101000000010001010100000094
:100460000100010101000000010001010001000084
:100470000100010101010000010001010101000072
:100480000100010101000000010001010100000064
:100490000101010001010000010101010001000052
:1004A0000100010100010000010001010101000043
:1004B0000100000100000000010001010100000036
:1004C0000100010101000000010001010100000024
:1004D0000100010101000000010001010100000014
:1004E0000100010101000000010101000101000003
:1004F00001000101010000000100010101000000F4
:1005000001000101010000000100010101000000E3
:1005100001000101010000000101010101000000D2
:1005200001010101010100000100010101010000C0
:1005300001010101010100000101010101000000B0
:1005400001010101010100000101010001010000A0
:10055000010401010104000001000101010100008A
:10056000010101010101000001010101020200007D
:100570000101000101010000010101000101000071
:10058000010101010101000001010101010100005F
:100590000101010101010000010401010104000049
:1005A0000104010101040000010101010101000039
:1005B0000101010101010000010101000101000030
:1005C000010101010101000001010101010100001F
:1005D000010101010101000001010101010100000F
:1005E00001040101010400000101010101010000F9
:1005F00001010101010100000101010101010000EF
:1006000001000101010000000101000000010000E3
:1006100001010001000100000001000100010000D3
:1006200001010001000100000101010101010000C0
:1006300001010101010100000101000000010000B1
:10064000010101010101000001010100010100009F
:100650000101010001010000010101000101000090
:100660000101000100010000010101000001000082
:100670000101000001010000010100000001000073
:10068000010101010101000001010101010100005E
:10069000010101000101000001010101010100004F
:1006A0000101010001010000010101010100000040
:1006B000010101000101000001010101010100002F
:1006C0000101010001010000010100010101000020
:1006D000010101010100000001010101010100000F
:1006E00001010101010100000101010101010000FE
:1006F00001010101010100000101000101010000EF
:1007000001010101010000000101010101010000DE
:1007100001010101010100000102010100010000CD
:1007200001010100010100000101000101010000BF
:1007300001010100010100000101000101000000B0
:100740000101000101010000010401010104000098
:10075000010101010101000001010101010100008D
:100760000104010401040000010001010100000076
:10077000010101010101000001010001010000006F
:100780000101010100000000010101000100000061
:100790000101000101000000010100010001000051
:1007A000010101010100000001010001010100003F
:1007B000010101010101000001000100010100002F
:1007C0000100010101010000010001000101000020
:1007D000010101010101000001010101010100000D
:1007E0000101000100010000010100010001000001
:1007F00001000000000000000101010101010000F2
:1008000001000101000000000101010001010000E0
:1008100001000101010000000101010101000000CF
:1008200001010100010000000100010101010000BF
:1008300001000101010100000101010101000000AE
:1008400001000101010000000100010101000000A0
:100850000100010101000000010001010100000090
:10086000010001010101000001000101010000007F
:10087000010001010101000001000101010100006E
:10088000010001010101000001000101010000005F
:10089000010101000101000001010101000100004E
:1008A000010001000101000001000101010100003F
:1008B0000100010001000000010000010100000032
:1008C0000100010101000000010001010100000020
:1008D0000100010101000000010001010100000010
:1008E00001000101010100000101010001010000FE
:1008F00001000101010000000100010101000000F0
:1009000001000101010000000101000100010000DF
:1009100001010001000100000101010100010000CE
:1009200001010000000100000100000000010000C2
:1009300001010000000100000101000000000000B2
:1009400001010000000100000101000000010000A1
:100950000104010101040000010000000001000089
:10096000010100000101000001010101010200007C
:10097000010100010100000001010100010100006E
:100980000100000000010000010000000001000063
:100990000101000000010000010401010104000048
:1009A0000104010101040000010001000000000039
:1009B0000101000000000000010100000001000032
:1009C000010001010100000001000101010000001F
:1009D000010001010100000001000101010000000F
:1009E00001040101010400000100000000000000FA
:1009F00001010101010100000101010101010000EB
:100A000001000101010000000101000000010000DF
:100A100001000000000000000100010001010000D1
:100A200001010001000100000101010101010000BC
:100A300001010101010100000100010001000000AD
:100A4000010101010101000001010001010100009B
:100A5000010101010001000001010101010100008B
:100A6000010101010101000001010100010100007B
:100A7000010101000101000001010100010100006C
:100A8000010101010101000001010100010100005B
:100A9000010101000101000001000101010000004D
:100AA000010101000101000001010101000100003C
:100AB0000101000101010000010000000000000030
:100AC000010101010001000001010100010100001C
:100AD0000100000000000000010101000101000010
:100AE00001010100010100000101010001010000FC
:100AF00001010100010100000101010001010000EC
:100B000001010101000100000101010101010000DA
:100B100001010000010000000102010100010000CC
:100B200001010001000100000101010001010000BC
:100B300001010101000100000101000101000000AC
:100B40000101010001010000010401010104000094
:100B50000100000000000000010000000000000093
:100B60000104010401040000010001010100000072
:100B7000010100010001000001010001010000006D
:100B8000010101000101000001010100010100005B
:100B9000010101010001000001000101010000004C
:100BA000010101010100000001000100010100003C
:100BB000010101000101000001000001010100002C
:100BC000010001010101000001000100010100001C
:100BD000010100010001000001010001000100000D
:100BE0000100000000000000010001000100000001
:100BF00001000000000000000101010101010000EE
:100C000001000100010000000101010001010000DC
:100C100001010101010000000101010000010000CB
:100C200001010001010000000100000000010000BE
:100C300001000000000100000101010100010000AD
:100C4000010100000001000001000101010000009D
:100C5000010001010100000001000000000100008E
:100C6000010001010101000001000101010000007B
:100C70000100000000010000010000000001000070
:100C8000010001010101000001000000000000005E
:100C9000010101000101000001010101000100004A
:100CA000010000010101000001000101010100003B
:100CB000010001000100000001000100010000002E
:100CC000010001010100000001000101010000001C
:100CD000010001010100000001000101010000000C
:100CE00001010000000100000101010001010000FC
:100CF00001000101010000000101000100010000EC
:100D000001000101010000000101010001010000DA
:100D100001010001000100000101010001010000CA
:100D200001010101010000000100010101000000BA
:100D300001000101010000000100010101000000AB
:100D4000010001010100000001010100010100009A
:100D50000104010101040000010001010100000083
:100D60000101010001010000010101010102000077
:100D7000010100010001000001010100010100006A
:100D8000010001000100000001000101010000005C
:100D90000100010101000000010401010104000043
:100DA0000104010101040000010000010101000033
:100DB0000100010101010000010101000101000029
:100DC000010001010100000001000101010000001B
:100DD000010001010100000001010001000100000B
:100DE00001040101010400000101010100010000F2
:100DF00001010101010100000101010101010000E7
:100E000001010101000100000101010001010000D8
:100E100001010001000100000101010001010000C9
:100E200001010100010100000101010001010000B8
:100E300001000101010000000100010001000000AB
:100E4000010000000000000001010001010100009C
:100E50000101010100010000010101010101000087
:100E60000101010101010000010101000101000077
:100E70000101010001010000010101000101000068
:100E80000101010101010000010101000101000057
:100E9000010000000000000001010001000100004D
:100EA0000101010101010000010101000101000037
:100EB0000100010101010000010101010101000027
:100EC0000101010101000000010101010001000018
:100ED0000101010001010000010100000101000009
:100EE00001010100000100000101000000010000FB
:100EF00001010100010100000101010001010000E8
:100F000001010101000100000101010101010000D6
:100F100001000101000100000102000000010000C9
:100F200001010001000100000101000000010000BA
:100F300001010000000100000101000000000000AC
:100F40000101010001010000010401010104000090
:100F50000100010101000000010101000101000088
:100F6000010401040104000001000101010000006E
:100F70000100010101000000010101000001000069
:100F80000101000000010000010101000101000059
:100F90000101010001010000010101010101000046
:100FA0000101010100010000010001000100000039
:100FB0000101010001010000010001000101000028
:100FC000010000000101000001000000010000001C
:100FD0000101000100010000010100010001000009
:100FE00001000000000000000101000100010000FC
:100FF00001000000000000000101010101010000EA
:1010000001000001010000000101010001010000D8
:1010100001010101000100000101010101000000C6
:1010200001000101010000000101010101000000B7
:1010300001000101010000000101010100010000A7
:10104000010001010100000001010000000000009A
:10105000010000000000000001000101010000008B
:101060000100010101010000010001010100000077
:101070000100010101010000010001010101000066
:10108000010001000000000001000101010000005A
:101090000101010001010000010101010001000046
:1010A0000100000101010000010001010101000037
:1010B0000100010101000000010001010000000029
:1010C000010001010100000001000000000100001A
:1010D000010001010100000001000000000100000A
:1010E00001010101010000000101010001010000F6
:1010F00001000101010000000101000100010000E8
:1011000001000100010000000101010001010000D7
:1011100001010100010100000101000101010000C5
:1011200001010000000000000100010101000000B9
:1011300001000101010100000100010101000000A6
:101140000100000000000000010101000101000099
:10115000010401010104000001000101010000007F
:101160000101010001010000010101010102000073
:101170000101000001010000010101000101000066
:101180000100010001000000010001010100000058
:10119000010001010100000001040101010400003F
:1011A000010401010104000001000101010100002E
:1011B0000101000000010000010101000101000027
:1011C0000100010101000000010100010001000017
:1011D0000100010001000000010101000101000007
:1011E00001040101010400000101010001010000EE
:1011F00001010101010100000101010101010000E3
:1012000001010100010100000101010001010000D4
:1012100001010001000100000101000101010000C5
:1012200001010000010000000101000100010000B7
:1012300001010001000100000100000000000000A9
:101240000101010101000000010100010101000094
:101250000101010100010000010101010101000083
:101260000101010101010000010101000101000073
:101270000101010001010000010101000101000064
:10128000010000000000000001000000000000005C
:101290000101010001010000010101000101000044
:1012A0000100000000000000010100010101000038
:1012B0000101000101010000010101010101000023
:1012C0000101010100010000010101010100000014
:1012D0000101000101010000010000000000000008
:1012E00001000000000000000100000000000000FC
:1012F00001000000000000000101010100010000E8
:1013000001010100010100000101010101010000D2
:1013100001000101000100000102010101000000C3
:1013200001000101010000000100010101000000B5
:1013300001000101010000000101000101000000A5
:10134000010100010001000001040101040400008A
:101350000100010101000000010101000101000084
:10136000010401040104000001000101010000006A
:101370000100010001000000010101010101000064
:101380000101010001010000010101000101000053
:101390000101000000000000010101010101000045
:1013A0000100010100010000010001000100000036
:1013B0000100000000000000010000010100000029
:1013C0000101000101000000010001000100000016
:1013D0000101010101010000010101010101000001
:1013E00001000000000000000100010001000000F9
:1013F00001000000000000000101010101010000E6
:1014000001000101010000000101010001010000D3
:1014100001010100010100000101010101000000C2
:1014200001000000000000000101010101000000B6
:1014300001000101010000000101010001010000A3
:101440000100010101000000010101010100000093
:101450000100010101000000010001010100000084
:101460000100010101010000010001010100000073
:101470000100010101010000010001010101000062
:101480000100010101000000010001010100000054
:101490000101010001010000010001010001000043
:1014A0000100010001010000010001010101000033
:1014B0000100010101000000010001010100000024
:1014C0000100010101000000010001010101000013
:1014D0000100010101000000010001000101000004
:1014E00001010101010000000101010001010000F2
:1014F00001000101010000000101000100010000E4
:1015000001000100010000000101000100010000D4
:1015100001010100010100000100010101010000C1
:1015200001000101010000000100010101000000B3
:1015300001000101010100000100010101000000A2
:101540000100010101010000010101000101000091
:101550000101040404040000010001010100000075
:10156000010101000101000001010101010200006F
:101570000101000001010000010101000101000062
:101580000100010001000000010001010100000054
:101590000100010101000000010404040401000035
:1015A0000101040404040000010001010101000024
:1015B0000101010101000000010101000101000021
:1015C0000100010101000000010100010001000013
:1015D0000100010001000000010101000101000003
:1015E00001010404040400000101000101010000E4
:1015F00001010101010100000101010101010000DF
:1016000001010101010100000101010101010000CE
:1016100001000000000000000101000100010000C5
:1016200001000101000100000100010101000000B2
:1016300001010100010100000100010001000000A2
:101640000101010101000000010100010101000090
:10165000010101010001000001010101010100007F
:10166000010101010101000001010100010100006F
:101670000101010001010000010101000101000060
:10168000010101010101000001010100010100004F
:101690000101010001010000010100010001000041
:1016A000010101010101000001010100010100002F
:1016B0000101010001010000010000000000000024
:1016C0000101010001010000010101010001000010
:1016D0000100000000000000010100000101000005
:1016E00001010100000100000101010001010000F1
:1016F00001010000000100000101010100010000E2
:1017000001010100010100000101010101010000CE
:1017100001000101000100000102010101000000BF
:1017200001000101010000000100010101000000B1
:1017300001000101010000000101000101000000A1
:101740000101000100010000010404040104000083
:101750000100010101000000010101000101000080
:101760000101040404010000010001010100000066
:101770000100010001000000010101010101000060
:10178000010101000101000001010100010100004F
:10179000010101010101000001010101010100003D
:1017A0000101000100010000010101000100000031
:1017B000010101010101000001010100010000001F
:1017C0000101000001000000010100010100000012
:1017D0000100010101000000010100000001000002
:1017E00001010000000100000101000100010000F2
:1017F00001000000000000000101010101010000E2
:1018000001000101010000000101010001010000CF
:1018100001010001010100000100010101000000BF
:1018200001010101010000000100010101000000AF
:10183000010001010100000001010100010100009F
:10184000010001010100000001010101010000008F
:101850000100010101000000010001010100000080
:101860000100010101000000010001010001000070
:10187000010001010101000001000101010100005E
:101880000100010101000000010001010100000050
:10189000010101000101000001000101000100003F
:1018A000010001010001000001000101010100002F
:1018B0000100010101000000010001010100000020
:1018C000010001010100000001000101010100000F
:1018D0000100010001000000010001010001000001
:1018E00001000101010000000101010001010000EF
:1018F00001000101010000000101010001010000DF
:1019000001000001000000000100010101000000D1
:1019100001010100010100000100010101010000BD
:1019200001000101010000000100010101000000AF
:10193000010001010100000001000101010000009F
:10194000010001010101000001010100010100008D
:10195000010101010104000001000101010000007A
:101960000101010001010000010104010102000068
:10197000010100010001000001010100010100005E
:101980000100010001000000010001010100000050
:10199000010001010100000001040101010100003A
:1019A0000101010101040000010001010101000029
:1019B000010101010100000001010100010100001D
:1019C000010001010100000001010100010100000E
:1019D0000100010001000000010100010001000000
:1019E00001010101010400000100010101010000E9
:1019F00001010100010100000101010001010000DD
:101A000001010100010100000101010101010000CB
:101A100001010001000100000100010001000000BF
:101A200001000101000100000101010101010000AC
:101A3000010101010101000001000100010000009D
:101A4000010101010101000001010100010100008B
:101A5000010101000101000001010101010100007B
:101A6000010101010101000001010000010100006C
:101A7000010101000001000001010000000100005F
:101A8000010101010101000001010100010100004B
:101A9000010101010101000001000101010000003C
:101AA000010101000101000001010101000100002C
:101AB000010101010001000001010101010100001B
:101AC000010100010101000001010100010100000C
:101AD00001000101010100000101010001010000FC
:101AE00001010100010100000101010001010000EC
:101AF00001010100010100000101010101000000DC
:101B000001010001010100000101010101010000CA
:101B100001000101000100000102010101000000BB
:101B200001000101010000000100010101000000AD
:101B3000010001010100000001010001010000009D
:101B40000100010101000000010401010101000088
:101B5000010001010100000001010100010100007C
:101B60000101010401010000010100010001000068
:101B7000010001000100000001010101010100005C
:101B8000010101000101000001010100010100004B
:101B90000101010101010000010101010101000039
:101BA000010100010001000001010101000100002C
:101BB000010100000001000001000100010000001F
:101BC000010100010000000001010001010000000E
:101BD00001010000000100000100010101000000FE
:101BE00001010000000100000100010001000000EF
:101BF00001000000000000000101010101010000DE
:101C000001010000000100000101000000010000CE
:101C100001000000000000000101000000010000C0
:101C200001010101010000000101000000010000AC
:101C3000010100000001000001010100010100009C
:101C4000010100000001000001010000000100008E
:101C5000010001010100000001000000000100007E
:101C6000010100000001000001000000010100006E
:101C7000010000000000000001000101010100005E
:101C8000010100000001000001000101010000004D
:101C9000010100000001000001010000010100003D
:101CA000010001010100000001000000000000002F
:101CB000010001010100000001000101010000001C
:101CC000010100000001000001000101010100000C
:101CD00001010000000200000100010101000000FC
:101CE00001010000000100000101010001010000EC
:101CF00001010000000100000101010001010000DC
:101D000001000101010000000100010101000000CB
:101D100001010100010100000100000000000000BD
:101D200001010000000000000100000000010000AF
:101D3000010100000001000001010000000000009E
:101D4000010100000000000001010100010100008C
:101D50000101040404010000010001010100000070
:101D60000101000000010000010101040402000063
:101D7000010100010100000001010100000100005B
:101D8000010001000100000001000101010000004C
:101D90000101000000010000010401010101000037
:101DA0000101010101040000010001010101000025
:101DB000010000000001000001010101000000001D
:101DC000010100000000000001010100010100000C
:101DD00001010000000100000100010101000000FC
:101DE00001010404040100000100000000000000E3
:101DF00001010100010100000101020001010000D8
:101E000001010100010100000101010001010000C8
:101E100001010001000100000100010100010000BA
:101E200001010000010000000101010101010000A9
:101E30000101010101010000010100000001000099
:101E40000101010101010000010101010001000087
:101E50000101000101010000010101010101000077
:101E60000101010101010000010000010101000068
:101E7000010101010000000001000001000000005C
:101E80000101010101010000010101010101000046
:101E9000010000000000000001010101010100003B
:101EA0000101010001010000010101010100000028
:101EB0000102020202020000010101010101000011
:101EC0000102020202020000010100010101000002
:101ED00001010101010100000101010101010000F6
:101EE00001010101010100000101010101010000E6
:101EF00001010101010100000101010101000000D7
:101F000001010001010100000102020202020000C1
:101F100001010000010000000102000000010000BA
:101F200001000000000000000101000000010000AD
:101F3000010100000001000001010100000100009A
:101F40000100010101000000010401010101000084
:101F50000100010101000000010101010001000078
:101F60000101010401010000010000010000000066
:101F70000101000100010000010101010101000057
:101F80000100000101010000010002000101000048
:101F90000101010101010000010101010101000035
:101FA0000101010001010000010101010101000026
:101FB0000101010101010000010100010001000017
:101FC0000101000101000000010101000001000009
:101FD00001010101010100000101010101010000F5
:101FE00001010100010100000101000100010000E8
:101FF00001000000000000000101010101010000DA
:1020000001010000000100000101010001010000C8
:1020100001010000000100000101000000010000BA
:1020200001010101010000000100000000000000AA
:10203000010100000001000001000000000000009C
:10204000010100000001000001010000000100008A
:10205000010100000001000001000000000100007B
:10206000010100000001000001000000010100006A
:10207000010000000000000001000000000000005E
:102080000101000000010000010001010100000049
:10209000010100000001000001010100000000003A
:1020A0000100010101000000010001010101000027
:1020B0000100010101000000010001010100000018
:1020C000010100000001000001000000000100000B
:1020D00001010000000100000100000000010000FB
:1020E00001010000000100000100000000000000EC
:1020F00001000101010000000100010101000000D8
:1021000001000101010000000100010101000000C7
:1021100001000101010000000100000000000000BA
:1021200001010101010100000100010101010000A4
:102130000101010101010000010101010100000094
:102140000101010101010000010101010000000085
:102150000101040404040000010001010101000068
:102160000101010001010000010101010100000065
:102170000101000101010000010100000101000056
:102180000101010101010000010101010101000043
:102190000101010101010000010404040401000027
:1021A0000101040404040000010101010101000017
:1021B0000101010101010000010101000101000014
:1021C0000101010101010000010101010101000003
:1021D00001010101010100000101010101010000F3
:1021E00001040101010400000101010101010000DD
:1021F00001010101010100000101010101010000D3
:1022000001010000000100000101010001010000C6
:1022100001010001000100000100010100010000B6
:1022200001010100010100000101010101010000A3
:102230000101010101010000010101010101000092
:102240000101010101010000010101010001000083
:102250000101000101010000010101000101000074
:102260000101000100010000010101010000000066
:102270000100000101010000010000010000000058
:102280000101010101010000010101010101000042
:102290000101010101010000010101010101000032
:1022A0000101010101010000010101010101000022
:1022B0000101010100010000010101010101000013
:1022C0000101000101010000010101010101000003
:1022D00001010101010100000101010101010000F2
:1022E00001010101010100000101010101010000E2
:1022F00001010101010100000101000101010000D3
:1023000001010101010000000101010101010000C2
:1023100001010101010100000102000001010000B2
:1023200001010100010100000100000000010000A6
:102330000100000101010000010101000001000095
:10234000010100010101000001040101010400007C
:102350000101010101010000010101010101000071
:10236000010401010401000001010000000100005E
:102370000101010101010000010101000001000053
:102380000101010101010000010101010001000042
:102390000101010000010000010101000101000034
:1023A0000101010101000000010101010101000022
:1023B0000101010101010000010000010101000013
:1023C0000100010101010000010100010101000003
:1023D00001010101010100000101010101010000F1
:1023E00001010101010100000100010001000000E4
:1023F00001000000000000000101010101010000D6
:1024000001000101010000000101000001010000C4
:1024100001000101010000000100010101000000B4
:1024200001010101000000000100010101010000A3
:102430000100010101010000010101010100000092
:102440000100010101000000010001010100000084
:102450000100010101000000010001010100000074
:102460000100010101000000010001010001000064
:102470000100010101010000010001010101000052
:102480000100010101000000010001010100000044
:102490000101010001010000010101010001000032
:1024A0000100010100010000010001010101000023
:1024B0000100000100000000010001010100000016
:1024C0000100010101000000010001010100000004
:1024D00001000101010000000100010101000000F4
:1024E00001000101010000000101010001010000E3
:1024F00001000101010000000100010101000000D4
:1025000001000101010000000100010101000000C3
:1025100001000101010000000101010101000000B2
:1025200001010101010100000100010101010000A0
:102530000101010101010000010101010100000090
:102540000101010101010000010101000101000080
:10255000010401010104000001000101010100006A
:10256000010101010101000001010101020200005D
:102570000101000101010000010101000101000051
:10258000010101010101000001010101010100003F
:102590000101010101010000010401010104000029
:1025A0000104010101040000010101010101000019
:1025B0000101010101010000010101000101000010
:1025C00001010101010100000101010101010000FF
:1025D00001010101010100000101010101010000EF
:1025E00001040101010400000101010101010000D9
:1025F00001010101010100000101010101010000CF
:1026000001000101010000000101000000010000C3
:1026100001010001000100000001000100010000B3
:1026200001010001000100000101010101010000A0
:102630000101010101010000010100000001000091
:10264000010101010101000001010100010100007F
:102650000101010001010000010101000101000070
:102660000101000100010000010101000001000062
:102670000101000001010000010100000001000053
:10268000010101010101000001010101010100003E
:10269000010101000101000001010101010100002F
:1026A0000101010001010000010101010100000020
:1026B000010101000101000001010101010100000F
:1026C0000101010001010000010100010101000000
:1026D00001010101010000000101010101010000EF
:1026E00001010101010100000101010101010000DE
:1026F00001010101010100000101000101010000CF
:1027000001010101010000000101010101010000BE
:1027100001010101010100000102010100010000AD
:10272000010101000101000001010001010100009F
:102730000101010001010000010100010100000090
:102740000101000101010000010401010104000078
:10275000010101010101000001010101010100006D
:102760000104010401040000010001010100000056
:10277000010101010101000001010001010000004F
:102780000101010100000000010101000100000041
:102790000101000101000000010100010001000031
:1027A000010101010100000001010001010100001F
:1027B000010101010101000001000100010100000F
:1027C0000100010101010000010001000101000000
:1027D00001010101010100000101010101010000ED
:1027E00001010001000100000101000100010000E1
:1027F00001000000000000000101010101010000D2
:1028000001000101000000000101010001010000C0
:1028100001000101010000000101010101000000AF
:10282000010101000100000001000101010100009F
:10283000010001010101000001010101010000008E
:102840000100010101000000010001010100000080
:102850000100010101000000010001010100000070
:10286000010001010101000001000101010000005F
:10287000010001010101000001000101010100004E
:10288000010001010101000001000101010000003F
:10289000010101000101000001010101000100002E
:1028A000010001000101000001000101010100001F
:1028B0000100010001000000010000010100000012
:1028C0000100010101000000010001010100000000
:1028D00001000101010000000100010101000000F0
:1028E00001000101010100000101010001010000DE
:1028F00001000101010000000100010101000000D0
:1029000001000101010000000101000100010000BF
:1029100001010001000100000101010100010000AE
:1029200001010000000100000100000000010000A2
:102930000101000000010000010100000000000092
:102940000101000000010000010100000001000081
:102950000104010101040000010000000001000069
:10296000010100000101000001010101010200005C
:10297000010100010100000001010100010100004E
:102980000100000000010000010000000001000043
:102990000101000000010000010401010104000028
:1029A0000104010101040000010001000000000019
:1029B0000101000000000000010100000001000012
:1029C00001000101010000000100010101000000FF
:1029D00001000101010000000100010101000000EF
:1029E00001040101010400000100000000000000DA
:1029F00001010101010100000101010101010000CB
:102A000001000101010000000101000000010000BF
:102A100001000000000000000100010001010000B1
:102A2000010100010001000001010101010100009C
:102A3000010101010101000001000100010000008D
:102A4000010101010101000001010001010100007B
:102A5000010101010001000001010101010100006B
:102A6000010101010101000001010100010100005B
:102A7000010101000101000001010100010100004C
:102A8000010101010101000001010100010100003B
:102A9000010101000101000001000101010000002D
:102AA000010101000101000001010101000100001C
:102AB0000101000101010000010000000000000010
:102AC00001010101000100000101010001010000FC
:102AD00001000000000000000101010001010000F0
:102AE00001010100010100000101010001010000DC
:102AF00001010100010100000101010001010000CC
:102B000001010101000100000101010101010000BA
:102B100001010000010000000102010100010000AC
:102B2000010100010001000001010100010100009C
:102B3000010101010001000001010001010000008C
:102B40000101010001010000010401010104000074
:102B50000100000000000000010000000000000073
:102B60000104010401040000010001010100000052
:102B7000010100010001000001010001010000004D
:102B8000010101000101000001010100010100003B
:102B9000010101010001000001000101010000002C
:102BA000010101010100000001000100010100001C
:102BB000010101000101000001000001010100000C
:102BC00001000101010100000100010001010000FC
:102BD00001010001000100000101000100010000ED
:102BE00001000000000000000100010001000000E1
:102BF00001000000000000000101010101010000CE
:102C000001000100010000000101010001010000BC
:102C100001010101010000000101010000010000AB
:102C2000010100010100000001000000000100009E
:102C3000010000000001000001010101000100008D
:102C4000010100000001000001000101010000007D
:102C5000010001010100000001000000000100006E
:102C6000010001010101000001000101010000005B
:102C70000100000000010000010000000001000050
:102C8000010001010101000001000000000000003E
:102C9000010101000101000001010101000100002A
:102CA000010000010101000001000101010100001B
:102CB000010001000100000001000100010000000E
:102CC00001000101010000000100010101000000FC
:102CD00001000101010000000100010101000000EC
:102CE00001010000000100000101010001010000DC
:102CF00001000101010000000101000100010000CC
:102D000001000101010000000101010001010000BA
:102D100001010001000100000101010001010000AA
:102D2000010101010100000001000101010000009A
:102D3000010001010100000001000101010000008B
:102D4000010001010100000001010100010100007A
:102D50000104010101040000010001010100000063
:102D60000101010001010000010101010102000057
:102D7000010100010001000001010100010100004A
:102D8000010001000100000001000101010000003C
:102D90000100010101000000010401010104000023
:102DA0000104010101040000010000010101000013
:102DB0000100010101010000010101000101000009
:102DC00001000101010000000100010101000000FB
:102DD00001000101010000000101000100010000EB
:102DE00001040101010400000101010100010000D2
:102DF00001010101010100000101010101010000C7
:102E000001010101000100000101010001010000B8
:102E100001010001000100000101010001010000A9
:102E20000101010001010000010101000101000098
:102E3000010001010100000001000100010000008B
:102E4000010000000000000001010001010100007C
:102E50000101010100010000010101010101000067
:102E60000101010101010000010101000101000057
:102E70000101010001010000010101000101000048
:102E80000101010101010000010101000101000037
:102E9000010000000000000001010001000100002D
:102EA0000101010101010000010101000101000017
:102EB0000100010101010000010101010101000007
:102EC00001010101010000000101010100010000F8
:102ED00001010100010100000101000001010000E9
:102EE00001010100000100000101000000010000DB
:102EF00001010100010100000101010001010000C8
:102F000001010101000100000101010101010000B6
:102F100001000101000100000102000000010000A9
:102F2000010100010001000001010000000100009A
:102F3000010100000001000001010000000000008C
:102F40000101010001010000010401010104000070
:102F50000100010101000000010101000101000068
:102F6000010401040104000001000101010000004E
:102F70000100010101000000010101000001000049
:102F80000101000000010000010101000101000039
:102F90000101010001010000010101010101000026
:102FA0000101010100010000010001000100000019
:102FB0000101010001010000010001000101000008
:102FC00001000000010100000100000001000000FC
:102FD00001010001000100000101000100010000E9
:102FE00001000000000000000101000100010000DC
:102FF00001000000000000000101010101010000CA
:1030000001000001010000000101010001010000B8
:1030100001010101000100000101010101000000A6
:103020000100010101000000010101010100000097
:103030000100010101000000010101010001000087
:10304000010001010100000001010000000000007A
:10305000010000000000000001000101010000006B
:103060000100010101010000010001010100000057
:103070000100010101010000010001010101000046
:10308000010001000000000001000101010000003A
:103090000101010001010000010101010001000026
:1030A0000100000101010000010001010101000017
:1030B0000100010101000000010001010000000009
:1030C00001000101010000000100000000010000FA
:1030D00001000101010000000100000000010000EA
:1030E00001010101010000000101010001010000D6
:1030F00001000101010000000101000100010000C8
:1031000001000100010000000101010001010000B7
:1031100001010100010100000101000101010000A5
:103120000101000000000000010001010100000099
:103130000100010101010000010001010100000086
:103140000100000000000000010101000101000079
:10315000010401010104000001000101010000005F
:103160000101010001010000010101010102000053
:103170000101000001010000010101000101000046
:103180000100010001000000010001010100000038
:10319000010001010100000001040101010400001F
:1031A000010401010104000001000101010100000E
:1031B0000101000000010000010101000101000007
:1031C00001000101010000000101000100010000F7
:1031D00001000100010000000101010001010000E7
:1031E00001040101010400000101010001010000CE
:1031F00001010101010100000101010101010000C3
:1032000001010100010100000101010001010000B4
:1032100001010001000100000101000101010000A5
:103220000101000001000000010100010001000097
:103230000101000100010000010000000000000089
:103240000101010101000000010100010101000074
:103250000101010100010000010101010101000063
:103260000101010101010000010101000101000053
:103270000101010001010000010101000101000044
:10328000010000000000000001000000000000003C
:103290000101010001010000010101000101000024
:1032A0000100000000000000010100010101000018
:1032B0000101000101010000010101010101000003
:1032C00001010101000100000101010101000000F4
:1032D00001010001010100000100000000000000E8
:1032E00001000000000000000100000000000000DC
:1032F00001000000000000000101010100010000C8
:1033000001010100010100000101010101010000B2
:1033100001000101000100000102010101000000A3
:103320000100010101000000010001010100000095
:103330000100010101000000010100010100000085
:10334000010100010001000001040101040400006A
:103350000100010101000000010101000101000064
:10336000010401040104000001000101010000004A
:103370000100010001000000010101010101000044
:103380000101010001010000010101000101000033
:103390000101000000000000010101010101000025
:1033A0000100010100010000010001000100000016
:1033B0000100000000000000010000010100000009
:1033C00001010001010000000100010001000000F6
:1033D00001010101010100000101010101010000E1
:1033E00001000000000000000100010001000000D9
:1033F00001000000000000000101010101010000C6
:1034000001000101010000000101010001010000B3
:1034100001010100010100000101010101000000A2
:103420000100000000000000010101010100000096
:103430000100010101000000010101000101000083
:103440000100010101000000010101010100000073
:103450000100010101000000010001010100000064
:103460000100010101010000010001010100000053
:103470000100010101010000010001010101000042
:103480000100010101000000010001010100000034
:103490000101010001010000010001010001000023
:1034A0000100010001010000010001010101000013
:1034B0000100010101000000010001010100000004
:1034C00001000101010000000100010101010000F3
:1034D00001000101010000000100010001010000E4
:1034E00001010101010000000101010001010000D2
:1034F00001000101010000000101000100010000C4
:1035000001000100010000000101000100010000B4
:1035100001010100010100000100010101010000A1
:103520000100010101000000010001010100000093
:103530000100010101010000010001010100000082
:103540000100010101010000010101000101000071
:103550000101040404040000010001010100000055
:10356000010101000101000001010101010200004F
:103570000101000001010000010101000101000042
:103580000100010001000000010001010100000034
:103590000100010101000000010404040401000015
:1035A0000101040404040000010001010101000004
:1035B0000101010101000000010101000101000001
:1035C00001000101010000000101000100010000F3
:1035D00001000100010000000101010001010000E3
:1035E00001010404040400000101000101010000C4
:1035F00001010101010100000101010101010000BF
:1036000001010101010100000101010101010000AE
:1036100001000000000000000101000100010000A5
:103620000100010100010000010001010100000092
:103630000101010001010000010001000100000082
:103640000101010101000000010100010101000070
:10365000010101010001000001010101010100005F
:10366000010101010101000001010100010100004F
:103670000101010001010000010101000101000040
:10368000010101010101000001010100010100002F
:103690000101010001010000010100010001000021
:1036A000010101010101000001010100010100000F
:1036B0000101010001010000010000000000000004
:1036C00001010100010100000101010100010000F0
:1036D00001000000000000000101000001010000E5
:1036E00001010100000100000101010001010000D1
:1036F00001010000000100000101010100010000C2
:1037000001010100010100000101010101010000AE
:10371000010001010001000001020101010000009F
:103720000100010101000000010001010100000091
:103730000100010101000000010100010100000081
:103740000101000100010000010404040104000063
:103750000100010101000000010101000101000060
:103760000101040404010000010001010100000046
:103770000100010001000000010101010101000040
:10378000010101000101000001010100010100002F
:10379000010101010101000001010101010100001D
:1037A0000101000100010000010101000100000011
:1037B00001010101010100000101010001000000FF
:1037C00001010000010000000101000101000000F2
:1037D00001000101010000000101000000010000E2
:1037E00001010000000100000101000100010000D2
:1037F00001000000000000000101010101010000C2
:1038000001000101010000000101010001010000AF
:10381000010100010101000001000101010000009F
:10382000010101010100000001000101010000008F
:10383000010001010100000001010100010100007F
:10384000010001010100000001010101010000006F
:103850000100010101000000010001010100000060
:103860000100010101000000010001010001000050
:10387000010001010101000001000101010100003E
:103880000100010101000000010001010100000030
:10389000010101000101000001000101000100001F
:1038A000010001010001000001000101010100000F
:1038B0000100010101000000010001010100000000
:1038C00001000101010000000100010101010000EF
:1038D00001000100010000000100010100010000E1
:1038E00001000101010000000101010001010000CF
:1038F00001000101010000000101010001010000BF
:1039000001000001000000000100010101000000B1
:10391000010101000101000001000101010100009D
:10392000010001010100000001000101010000008F
:10393000010001010100000001000101010000007F
:10394000010001010101000001010100010100006D
:10395000010101010104000001000101010000005A
:103960000101010001010000010104010102000048
:10397000010100010001000001010100010100003E
:103980000100010001000000010001010100000030
:10399000010001010100000001040101010100001A
:1039A0000101010101040000010001010101000009
:1039B00001010101010000000101010001010000FD
:1039C00001000101010000000101010001010000EE
:1039D00001000100010000000101000100010000E0
:1039E00001010101010400000100010101010000C9
:1039F00001010100010100000101010001010000BD
:103A000001010100010100000101010101010000AB
:103A1000010100010001000001000100010000009F
:103A2000010001010001000001010101010100008C
:103A3000010101010101000001000100010000007D
:103A4000010101010101000001010100010100006B
:103A5000010101000101000001010101010100005B
:103A6000010101010101000001010000010100004C
:103A7000010101000001000001010000000100003F
:103A8000010101010101000001010100010100002B
:103A9000010101010101000001000101010000001C
:103AA000010101000101000001010101000100000C
:103AB00001010101000100000101010101010000FB
:103AC00001010001010100000101010001010000EC
:103AD00001000101010100000101010001010000DC
:103AE00001010100010100000101010001010000CC
:103AF00001010100010100000101010101000000BC
:103B000001010001010100000101010101010000AA
:103B1000010001010001000001020101010000009B
:103B2000010001010100000001000101010000008D
:103B3000010001010100000001010001010000007D
:103B40000100010101000000010401010101000068
:103B5000010001010100000001010100010100005C
:103B60000101010401010000010100010001000048
:103B7000010001000100000001010101010100003C
:103B8000010101000101000001010100010100002B
:103B90000101010101010000010101010101000019
:103BA000010100010001000001010101000100000C
:103BB00001010000000100000100010001000000FF
:103BC00001010001000000000101000101000000EE
:103BD00001010000000100000100010101000000DE
:103BE00001010000000100000100010001000000CF
:103BF00001000000000000000101010101010000BE
:103C000001010000000100000101000000010000AE
:103C100001000000000000000101000000010000A0
:103C2000010101010100000001010000000100008C
:103C3000010100000001000001010100010100007C
:103C4000010100000001000001010000000100006E
:103C5000010001010100000001000000000100005E
:103C6000010100000001000001000000010100004E
:103C7000010000000000000001000101010100003E
:103C8000010100000001000001000101010000002D
:103C9000010100000001000001010000010100001D
:103CA000010001010100000001000000000000000F
:103CB00001000101010000000100010101000000FC
:103CC00001010000000100000100010101010000EC
:103CD00001010000000200000100010101000000DC
:103CE00001010000000100000101010001010000CC
:103CF00001010000000100000101010001010000BC
:103D000001000101010000000100010101000000AB
:103D1000010101000101000001000000000000009D
:103D2000010100000000000001000000000100008F
:103D3000010100000001000001010000000000007E
:103D4000010100000000000001010100010100006C
:103D50000101040404010000010001010100000050
:103D60000101000000010000010101040402000043
:103D7000010100010100000001010100000100003B
:103D8000010001000100000001000101010000002C
:103D90000101000000010000010401010101000017
:103DA0000101010101040000010001010101000005
:103DB00001000000000100000101010100000000FD
:103DC00001010000000000000101010001010000EC
:103DD00001010000000100000100010101000000DC
:103DE00001010404040100000100000000000000C3
:103DF00001010100010100000101020001010000B8
:103E000001010100010100000101010001010000A8
:103E1000010100010001000001000101000100009A
:103E20000101000001000000010101010101000089
:103E30000101010101010000010100000001000079
:103E40000101010101010000010101010001000067
:103E50000101000101010000010101010101000057
:103E60000101010101010000010000010101000048
:103E7000010101010000000001000001000000003C
:103E80000101010101010000010101010101000026
:103E9000010000000000000001010101010100001B
:103EA0000101010001010000010101010100000008
:103EB00001020202020200000101010101010000F1
:103EC00001020202020200000101000101010000E2
:103ED00001010101010100000101010101010000D6
:103EE00001010101010100000101010101010000C6
:103EF00001010101010100000101010101000000B7
:103F000001010001010100000102020202020000A1
:103F1000010100000100000001020000000100009A
:103F2000010000000000000001010000000100008D
:103F3000010100000001000001010100000100007A
:103F40000100010101000000010401010101000064
:103F50000100010101000000010101010001000058
:103F60000101010401010000010000010000000046
:103F70000101000100010000010101010101000037
:103F80000100000101010000010002000101000028
:103F90000101010101010000010101010101000015
:103FA0000101010001010000010101010101000006
:103FB00001010101010100000101000100010000F7
:103FC00001010001010000000101010000010000E9
:103FD00001010101010100000101010101010000D5
:103FE00001010100010100000101000100010000C8
:103FF00001000000000000000101010101010000BA
:1040000001010000000100000101010001010000A8
:10401000010100000001000001010000000100009A
:10402000010101010100000001000000000000008A
:10403000010100000001000001000000000000007C
:10404000010100000001000001010000000100006A
:10405000010100000001000001000000000100005B
:10406000010100000001000001000000010100004A
:10407000010000000000000001000000000000003E
:104080000101000000010000010001010100000029
:10409000010100000001000001010100000000001A
:1040A0000100010101000000010001010101000007
:1040B00001000101010000000100010101000000F8
:1040C00001010000000100000100000000010000EB
:1040D00001010000000100000100000000010000DB
:1040E00001010000000100000100000000000000CC
:1040F00001000101010000000100010101000000B8
:1041000001000101010000000100010101000000A7
:10411000010001010100000001000000000000009A
:104120000101010101010000010001010101000084
:104130000101010101010000010101010100000074
:104140000101010101010000010101010000000065
:104150000101040404040000010001010101000048
:104160000101010001010000010101010100000045
:104170000101000101010000010100000101000036
:104180000101010101010000010101010101000023
:104190000101010101010000010404040401000007
:1041A00001010404040400000101010101010000F7
:1041B00001010101010100000101010001010000F4
:1041C00001010101010100000101010101010000E3
:1041D00001010101010100000101010101010000D3
:1041E00001040101010400000101010101010000BD
:1041F00001010101010100000101010101010000B3
:1042000001010000000100000101010001010000A6
:104210000101000100010000010001010001000096
:104220000101010001010000010101010101000083
:104230000101010101010000010101010101000072
:104240000101010101010000010101010001000063
:104250000101000101010000010101000101000054
:104260000101000100010000010101010000000046
:104270000100000101010000010000010000000038
:104280000101010101010000010101010101000022
:104290000101010101010000010101010101000012
:1042A0000101010101010000010101010101000002
:1042B00001010101000100000101010101010000F3
:1042C00001010001010100000101010101010000E3
:1042D00001010101010100000101010101010000D2
:1042E00001010101010100000101010101010000C2
:1042F00001010101010100000101000101010000B3
:1043000001010101010000000101010101010000A2
:104310000101010101010000010200000101000092
:104320000101010001010000010000000001000086
:104330000100000101010000010101000001000075
:10434000010100010101000001040101010400005C
:104350000101010101010000010101010101000051
:10436000010401010401000001010000000100003E
:104370000101010101010000010101000001000033
:104380000101010101010000010101010001000022
:104390000101010000010000010101000101000014
:1043A0000101010101000000010101010101000002
:1043B00001010101010100000100000101010000F3
:1043C00001000101010100000101000101010000E3
:1043D00001010101010100000101010101010000D1
:1043E00001010101010100000100010001000000C4
:1043F00001000000000000000101010101010000B6
:1044000001000101010000000101000001010000A4
:104410000100010101000000010001010100000094
:104420000101010100000000010001010101000083
:104430000100010101010000010101010100000072
:104440000100010101000000010001010100000064
:104450000100010101000000010001010100000054
:104460000100010101000000010001010001000044
:104470000100010101010000010001010101000032
:104480000100010101000000010001010100000024
:104490000101010001010000010101010001000012
:1044A0000100010100010000010001010101000003
:1044B00001000001000000000100010101000000F6
:1044C00001000101010000000100010101000000E4
:1044D00001000101010000000100010101000000D4
:1044E00001000101010000000101010001010000C3
:1044F00001000101010000000100010101000000B4
:1045000001000101010000000100010101000000A3
:104510000100010101000000010101010100000092
:104520000101010101010000010001010101000080
:104530000101010101010000010101010100000070
:104540000101010101010000010101000101000060
:10455000010401010104000001000101010100004A
:10456000010101010101000001010101020200003D
:104570000101000101010000010101000101000031
:10458000010101010101000001010101010100001F
:104590000101010101010000010401010104000009
:1045A00001040101010400000101010101010000F9
:1045B00001010101010100000101010001010000F0
:1045C00001010101010100000101010101010000DF
:1045D00001010101010100000101010101010000CF
:1045E00001040101010400000101010101010000B9
:1045F00001010101010100000101010101010000AF
:1046000001000101010000000101000000010000A3
:104610000101000100010000000100010001000093
:104620000101000100010000010101010101000080
:104630000101010101010000010100000001000071
:10464000010101010101000001010100010100005F
:104650000101010001010000010101000101000050
:104660000101000100010000010101000001000042
:104670000101000001010000010100000001000033
:10468000010101010101000001010101010100001E
:10469000010101000101000001010101010100000F
:1046A0000101010001010000010101010100000000
:1046B00001010100010100000101010101010000EF
:1046C00001010100010100000101000101010000E0
:1046D00001010101010000000101010101010000CF
:1046E00001010101010100000101010101010000BE
:1046F00001010101010100000101000101010000AF
:10470000010101010100000001010101010100009E
:10471000010101010101000001020101000100008D
:10472000010101000101000001010001010100007F
:104730000101010001010000010100010100000070
:104740000101000101010000010401010104000058
:10475000010101010101000001010101010100004D
:104760000104010401040000010001010100000036
:10477000010101010101000001010001010000002F
:104780000101010100000000010101000100000021
:104790000101000101000000010100010001000011
:1047A00001010101010000000101000101010000FF
:1047B00001010101010100000100010001010000EF
:1047C00001000101010100000100010001010000E0
:1047D00001010101010100000101010101010000CD
:1047E00001010001000100000101000100010000C1
:1047F00001000000000000000101010101010000B2
:1048000001000101000000000101010001010000A0
:10481000010001010100000001010101010000008F
:10482000010101000100000001000101010100007F
:10483000010001010101000001010101010000006E
:104840000100010101000000010001010100000060
:104850000100010101000000010001010100000050
:10486000010001010101000001000101010000003F
:10487000010001010101000001000101010100002E
:10488000010001010101000001000101010000001F
:10489000010101000101000001010101000100000E
:1048A00001000100010100000100010101010000FF
:1048B00001000100010000000100000101000000F2
:1048C00001000101010000000100010101000000E0
:1048D00001000101010000000100010101000000D0
:1048E00001000101010100000101010001010000BE
:1048F00001000101010000000100010101000000B0
:10490000010001010100000001010001000100009F
:10491000010100010001000001010101000100008E
:104920000101000000010000010000000001000082
:104930000101000000010000010100000000000072
:104940000101000000010000010100000001000061
:104950000104010101040000010000000001000049
:10496000010100000101000001010101010200003C
:10497000010100010100000001010100010100002E
:104980000100000000010000010000000001000023
:104990000101000000010000010401010104000008
:1049A00001040101010400000100010000000000F9
:1049B00001010000000000000101000000010000F2
:1049C00001000101010000000100010101000000DF
:1049D00001000101010000000100010101000000CF
:1049E00001040101010400000100000000000000BA
:1049F00001010101010100000101010101010000AB
:104A0000010001010100000001010000000100009F
:104A10000100000000000000010001000101000091
:104A2000010100010001000001010101010100007C
:104A3000010101010101000001000100010000006D
:104A4000010101010101000001010001010100005B
:104A5000010101010001000001010101010100004B
:104A6000010101010101000001010100010100003B
:104A7000010101000101000001010100010100002C
:104A8000010101010101000001010100010100001B
:104A9000010101000101000001000101010000000D
:104AA00001010100010100000101010100010000FC
:104AB00001010001010100000100000000000000F0
:104AC00001010101000100000101010001010000DC
:104AD00001000000000000000101010001010000D0
:104AE00001010100010100000101010001010000BC
:104AF00001010100010100000101010001010000AC
:104B0000010101010001000001010101010100009A
:104B1000010100000100000001020101000100008C
:104B2000010100010001000001010100010100007C
:104B3000010101010001000001010001010000006C
:104B40000101010001010000010401010104000054
:104B50000100000000000000010000000000000053
:104B60000104010401040000010001010100000032
:104B7000010100010001000001010001010000002D
:104B8000010101000101000001010100010100001B
:104B9000010101010001000001000101010000000C
:104BA00001010101010000000100010001010000FC
:104BB00001010100010100000100000101010000EC
:104BC00001000101010100000100010001010000DC
:104BD00001010001000100000101000100010000CD
:104BE00001000000000000000100010001000000C1
:104BF00001000000000000000101010101010000AE
:104C0000010001000100000001010100010100009C
:104C1000010101010100000001010100000100008B
:104C2000010100010100000001000000000100007E
:104C3000010000000001000001010101000100006D
:104C4000010100000001000001000101010000005D
:104C5000010001010100000001000000000100004E
:104C6000010001010101000001000101010000003B
:104C70000100000000010000010000000001000030
:104C8000010001010101000001000000000000001E
:104C9000010101000101000001010101000100000A
:104CA00001000001010100000100010101010000FB
:104CB00001000100010000000100010001000000EE
:104CC00001000101010000000100010101000000DC
:104CD00001000101010000000100010101000000CC
:104CE00001010000000100000101010001010000BC
:104CF00001000101010000000101000100010000AC
:104D0000010001010100000001010100010100009A
:104D1000010100010001000001010100010100008A
:104D2000010101010100000001000101010000007A
:104D3000010001010100000001000101010000006B
:104D4000010001010100000001010100010100005A
:104D50000104010101040000010001010100000043
:104D60000101010001010000010101010102000037
:104D7000010100010001000001010100010100002A
:104D8000010001000100000001000101010000001C
:104D90000100010101000000010401010104000003
:104DA00001040101010400000100000101010000F3
:104DB00001000101010100000101010001010000E9
:104DC00001000101010000000100010101000000DB
:104DD00001000101010000000101000100010000CB
:104DE00001040101010400000101010100010000B2
:104DF00001010101010100000101010101010000A7
:104E00000101010100010000010101000101000098
:104E10000101000100010000010101000101000089
:104E20000101010001010000010101000101000078
:104E3000010001010100000001000100010000006B
:104E4000010000000000000001010001010100005C
:104E50000101010100010000010101010101000047
:104E60000101010101010000010101000101000037
:104E70000101010001010000010101000101000028
:104E80000101010101010000010101000101000017
:104E9000010000000000000001010001000100000D
:104EA00001010101010100000101010001010000F7
:104EB00001000101010100000101010101010000E7
:104EC00001010101010000000101010100010000D8
:104ED00001010100010100000101000001010000C9
:104EE00001010100000100000101000000010000BB
:104EF00001010100010100000101010001010000A8
:104F00000101010100010000010101010101000096
:104F10000100010100010000010200000001000089
:104F2000010100010001000001010000000100007A
:104F3000010100000001000001010000000000006C
:104F40000101010001010000010401010104000050
:104F50000100010101000000010101000101000048
:104F6000010401040104000001000101010000002E
:104F70000100010101000000010101000001000029
:104F80000101000000010000010101000101000019
:104F90000101010001010000010101010101000006
:104FA00001010101000100000100010001000000F9
:104FB00001010100010100000100010001010000E8
:104FC00001000000010100000100000001000000DC
:104FD00001010001000100000101000100010000C9
:104FE00001000000000000000101000100010000BC
:104FF00001000000000000000101010101010000AA
:105000000100000101000000010101000101000098
:105010000101010100010000010101010100000086
:105020000100010101000000010101010100000077
:105030000100010101000000010101010001000067
:10504000010001010100000001010000000000005A
:10505000010000000000000001000101010000004B
:105060000100010101010000010001010100000037
:105070000100010101010000010001010101000026
:10508000010001000000000001000101010000001A
:105090000101010001010000010101010001000006
:1050A00001000001010100000100010101010000F7
:1050B00001000101010000000100010100000000E9
:1050C00001000101010000000100000000010000DA
:1050D00001000101010000000100000000010000CA
:1050E00001010101010000000101010001010000B6
:1050F00001000101010000000101000100010000A8
:105100000100010001000000010101000101000097
:105110000101010001010000010100010101000085
:105120000101000000000000010001010100000079
:105130000100010101010000010001010100000066
:105140000100000000000000010101000101000059
:10515000010401010104000001000101010000003F
:105160000101010001010000010101010102000033
:105170000101000001010000010101000101000026
:105180000100010001000000010001010100000018
:1051900001000101010000000104010101040000FF
:1051A00001040101010400000100010101010000EE
:1051B00001010000000100000101010001010000E7
:1051C00001000101010000000101000100010000D7
:1051D00001000100010000000101010001010000C7
:1051E00001040101010400000101010001010000AE
:1051F00001010101010100000101010101010000A3
:105200000101010001010000010101000101000094
:105210000101000100010000010100010101000085
:105220000101000001000000010100010001000077
:105230000101000100010000010000000000000069
:105240000101010101000000010100010101000054
:105250000101010100010000010101010101000043
:105260000101010101010000010101000101000033
:105270000101010001010000010101000101000024
:10528000010000000000000001000000000000001C
:105290000101010001010000010101000101000004
:1052A00001000000000000000101000101010000F8
:1052B00001010001010100000101010101010000E3
:1052C00001010101000100000101010101000000D4
:1052D00001010001010100000100000000000000C8
:1052E00001000000000000000100000000000000BC
:1052F00001000000000000000101010100010000A8
:105300000101010001010000010101010101000092
:105310000100010100010000010201010100000083
:105320000100010101000000010001010100000075
:105330000100010101000000010100010100000065
:10534000010100010001000001040101040400004A
:105350000100010101000000010101000101000044
:10536000010401040104000001000101010000002A
:105370000100010001000000010101010101000024
:105380000101010001010000010101000101000013
:105390000101000000000000010101010101000005
:1053A00001000101000100000100010001000000F6
:1053B00001000000000000000100000101000000E9
:1053C00001010001010000000100010001000000D6
:1053D00001010101010100000101010101010000C1
:1053E00001000000000000000100010001000000B9
:1053F00001000000000000000101010101010000A6
:105400000100010101000000010101000101000093
:105410000101010001010000010101010100000082
:105420000100000000000000010101010100000076
:105430000100010101000000010101000101000063
:105440000100010101000000010101010100000053
:105450000100010101000000010001010100000044
:105460000100010101010000010001010100000033
:105470000100010101010000010001010101000022
:105480000100010101000000010001010100000014
:105490000101010001010000010001010001000003
:1054A00001000100010100000100010101010000F3
:1054B00001000101010000000100010101000000E4
:1054C00001000101010000000100010101010000D3
:1054D00001000101010000000100010001010000C4
:1054E00001010101010000000101010001010000B2
:1054F00001000101010000000101000100010000A4
:105500000100010001000000010100010001000094
:105510000101010001010000010001010101000081
:105520000100010101000000010001010100000073
:105530000100010101010000010001010100000062
:105540000100010101010000010101000101000051
:105550000101040404040000010001010100000035
:10556000010101000101000001010101010200002F
:105570000101000001010000010101000101000022
:105580000100010001000000010001010100000014
:1055900001000101010000000104040404010000F5
:1055A00001010404040400000100010101010000E4
:1055B00001010101010000000101010001010000E1
:1055C00001000101010000000101000100010000D3
:1055D00001000100010000000101010001010000C3
:1055E00001010404040400000101000101010000A4
:1055F000010101010101000001010101010100009F
:10560000010101010101000001010101010100008E
:105610000100000000000000010100010001000085
:105620000100010100010000010001010100000072
:105630000101010001010000010001000100000062
:105640000101010101000000010100010101000050
:10565000010101010001000001010101010100003F
:10566000010101010101000001010100010100002F
:105670000101010001010000010101000101000020
:10568000010101010101000001010100010100000F
:105690000101010001010000010100010001000001
:1056A00001010101010100000101010001010000EF
:1056B00001010100010100000100000000000000E4
:1056C00001010100010100000101010100010000D0
:1056D00001000000000000000101000001010000C5
:1056E00001010100000100000101010001010000B1
:1056F00001010000000100000101010100010000A2
:10570000010101000101000001010101010100008E
:10571000010001010001000001020101010000007F
:105720000100010101000000010001010100000071
:105730000100010101000000010100010100000061
:105740000101000100010000010404040104000043
:105750000100010101000000010101000101000040
:105760000101040404010000010001010100000026
:105770000100010001000000010101010101000020
:10578000010101000101000001010100010100000F
:1057900001010101010100000101010101010000FD
:1057A00001010001000100000101010001000000F1
:1057B00001010101010100000101010001000000DF
:1057C00001010000010000000101000101000000D2
:1057D00001000101010000000101000000010000C2
:1057E00001010000000100000101000100010000B2
:1057F00001000000000000000101010101010000A2
:10580000010001010100000001010100010100008F
:10581000010100010101000001000101010000007F
:10582000010101010100000001000101010000006F
:10583000010001010100000001010100010100005F
:10584000010001010100000001010101010000004F
:105850000100010101000000010001010100000040
:105860000100010101000000010001010001000030
:10587000010001010101000001000101010100001E
:105880000100010101000000010001010100000010
:1058900001010100010100000100010100010000FF
:1058A00001000101000100000100010101010000EF
:1058B00001000101010000000100010101000000E0
:1058C00001000101010000000100010101010000CF
:1058D00001000100010000000100010100010000C1
:1058E00001000101010000000101010001010000AF
:1058F000010001010100000001010100010100009F
:105900000100000100000000010001010100000091
:10591000010101000101000001000101010100007D
:10592000010001010100000001000101010000006F
:10593000010001010100000001000101010000005F
:10594000010001010101000001010100010100004D
:10595000010101010104000001000101010000003A
:105960000101010001010000010104010102000028
:10597000010100010001000001010100010100001E
:105980000100010001000000010001010100000010
:1059900001000101010000000104010101010000FA
:1059A00001010101010400000100010101010000E9
:1059B00001010101010000000101010001010000DD
:1059C00001000101010000000101010001010000CE
:1059D00001000100010000000101000100010000C0
:1059E00001010101010400000100010101010000A9
:1059F000010101000101000001010100010100009D
:105A0000010101000101000001010101010100008B
:105A1000010100010001000001000100010000007F
:105A2000010001010001000001010101010100006C
:105A3000010101010101000001000100010000005D
:105A4000010101010101000001010100010100004B
:105A5000010101000101000001010101010100003B
:105A6000010101010101000001010000010100002C
:105A7000010101000001000001010000000100001F
:105A8000010101010101000001010100010100000B
:105A900001010101010100000100010101000000FC
:105AA00001010100010100000101010100010000EC
:105AB00001010101000100000101010101010000DB
:105AC00001010001010100000101010001010000CC
:105AD00001000101010100000101010001010000BC
